:100000000C947A030C9497030C9497030C94970325
:100010000C9497030C9497030C9497030C949703F8
:100020000C9497030C9497030C949F2A0C945529D5
:100030000C9498230C9497030C9497030C949703B7
:100040000C9497030C9497030C9497030C949703C8
:100050000C9497030C94FA220C9497030C94970336
:100060000C9497030C9497030C9497030C949703A8
:100070000C9497030C9497030C9497030C94970398
:100080000C9497030C9497030C9497030C94970388
:100090000C9497030C9497030C9497030C94970378
:1000A0000C9497030C9497030C949703D906DE06DF
:1000B000E306E806ED06F206F706FC06010706076A
:1000C0000B07A2041207150718071B071E072107B5
:1000D00026072B07CE07CE070C080C085508750815
:1000E000490AA20AB708A309B509B509180B1B0BE1
:1000F0001E0B210B240B270B2A0B410D460D500D17
:10010000440D490D4E0D4C0DB90FD30FFF0F40108C
:100110008110CC10CF10D210D510D810DB10DE100B
:10012000E110E410E710EC10EF10F210F710FC10E3
:10013000FF100211F21F192085211920852161204D
:1001400084208521432157215D265D267026702657
:1001500066267026702670265D265D266B26702624
:1001600070266B262E004C002941E100290000007A
:100170001E00140004001D61085D4D001F001A00E0
:1001800016001B00E2002A002000080007000600FD
:1001900050002C0021001500090019004F004A00F2
:1001A000220017000A0005000000656450002B00C3
:1001B0000000E30000002C014F0001530000015437
:1001C0000000E20023001C000B0011000000296168
:1001D000240018000D0010002F004B0025000C001B
:1001E0000E00360030002800260012000F003700F5
:1001F00052002B00270013003342387151004E008B
:100200002D0031002800E500340000002900010025
:1002100001000100010000003A001E02200222023B
:100220002E002C093B001F02210223020100C95CA1
:100230003C002F0226022F000100CA5C3D00300264
:100240002702300001002B0A3E0031023500350242
:100250000000C35C2E002B0100002B0300002B08C4
:1002600001000100000001000000C25C3F005200DC
:100270005100240200000B5D4000240021001E00FC
:10028000360001004100250022001F003700C55C38
:1002900042002600230020002700C65C43003400F3
:1002A0002D0031002E000100440045002A0001000D
:1002B0000100000001000100010001000100000038
:1002C0000100010001000100010001000100010026
:1002D000F20001000100F5000100F000F100010052
:1002E000F400F40001000100F3000100F50001003A
:1002F00001000100010001000000010001000100F7
:1003000000000100000001000100010000000100E8
:100310000000010001000100F200010000000100E6
:1003200001000100F0000100A9000100010001002E
:10033000F100AC00AA00B60001000100F300AB0020
:10034000A8000100010001000100010001000100FE
:10035000005C0100AE00010001000000000101018D
:100360000101010101010202020202020202020372
:100370000303030303030304040404040404050542
:100380000505050606060606070707070708080805
:1003900008090909090A0A0A0B0B0B0C0C0C0D0DB4
:1003A0000D0E0E0E0F0F0F1010111111121213134C
:1003B0001414151516161717181819191A1A1B1BC5
:1003C0001C1D1D1E1E1F2020212222232424252621
:1003D00026272829292A2B2C2D2D2E2F3031323259
:1003E000333435363738393A3B3C3D3E3F40414265
:1003F000434445464748494A4C4D4E4F505153544B
:10040000555658595A5B5D5E5F61626465666869FE
:100410006B6C6D6F7072737577787A7B7D7E80827E
:10042000838587888A8C8E8F91939596989A9C9EC7
:10043000A0A2A3A5A7A9ABADAFB1B3B5B7BABCBED7
:10044000C0C2C4C6C9CBCDCFD1D4D6D8DBDDDFE2A4
:10045000E4E7E9EBEEF0F3F5F8FAFDFF0A0000003F
:1004600000000306B200080001000000A800080018
:1004700002000200A0001400030057494E555342E9
:1004800000000000000000000000840004000700DD
:100490002A00440065007600690063006500490099
:1004A0006E00740065007200660061006300650004
:1004B00047005500490044007300000050007B00D5
:1004C0003900440042003700460031004600440035
:1004D0002D0037004500370041002D00340030006A
:1004E000300038002D0039003300360042002D0066
:1004F000360042004100360043003100390041001F
:1005000033003000380063007D00000000001B0352
:1005100001636F6E6669677572652E6572676F64D9
:100520006F782D657A2E636F6D0005010902A101B8
:1005300085020901A10005091901290515002501F8
:100540009505750181029501750381010501093049
:1005500009311581257F95027508810609381581B5
:10056000257F950175088106050C0A38021581253D
:100570007F950175088106C0C005010980A101852C
:10058000031A81002A8300160100260300950175D5
:10059000108100C0050C0901A10185041A01002A7F
:1005A0009C02160100269C02950175108100C00571
:1005B000010906A1018505050719E029E7150025B0
:1005C000019508750181020507190029EF1500251D
:1005D0000195F07501810205081901290595057538
:1005E000019102950175039101C005010906A10160
:1005F000050719E029E71500250195087501810215
:100600009501750881010507190029FF150026FFCE
:1006100000950675088100050819012905950575DD
:10062000019102950175039101C009025200030175
:1006300000A0FA09040000010301010009211101D1
:1006400000012240000705810308000A0904010097
:10065000010300000009211101000122C00007056B
:10066000820320000A0904020002FF0000000705BF
:100670008303400005070504034000051201100232
:1006800000000008EDFE071301000102030104034E
:100690003000000016034500720067006F00640020
:1006A0006F007800200045005A00000008035A003F
:1006B00053004100000004030904050F3900021C27
:1006C000100500DF60DDD88945C74C9CD2659D9E32
:1006D000648A9F00000306B2004500181005003828
:1006E000B60834A909A0478BFDA0768815B6650029
:1006F0000142000011241FBECFEFDAE0DEBFCDBF04
:1007000013E0A0E0B1E0E8E9FFE502C005900D923A
:10071000AC3DB107D9F726E0ACEDB3E001C01D92C6
:10072000A738B207E1F70E94DD190C94CA2F0C9488
:1007300000008F929F92AF92BF92CF92DF92EF9282
:10074000FF920F931F93CF93DF93CDB7DEB72D9713
:100750000FB6F894DEBF0FBECDBFFC01F080118153
:1007600083819481892B09F412C71F3F21F40FEF75
:10077000F01609F40CC76F0185E0DE0116960190B2
:100780000D928A95E1F7F60122818E819F812223C5
:1007900049F00E944525082F682F8E819F810E9475
:1007A000BE2503C00E949125082F26E0129FF0016C
:1007B000112434E5039FE00DF11D1124EF0DF11D0F
:1007C000EE0FFF1FEC59FE4F059114918091A40587
:1007D0008823B9F08091A505882399F01982F60144
:1007E00082818111D0C682E18A83F60180818B8368
:1007F00081818C838EEF8D8365E0CE0101960E940E
:10080000B021F60182810930FDE51F0759F00A3059
:100810002DE5120709F446C0023C3CE5130709F038
:100820008AC062C0882309F498C09091620581E073
:10083000890F8770987F853020F4892B809362051B
:1008400002C090936205809162058770EFEF8E9FE2
:10085000C001112495958795959587959927909333
:1008600089008093880090938B0080938A009093F6
:100870008D0080938C0040916205509163056091DA
:100880006405709165058FE090E00E945D2E609197
:10089000A0057091A1058091A2059091A3050E94E9
:1008A000270D5BC0882309F458C08091620583FB43
:1008B000222720F991E0922790FB83F9809362052B
:1008C000992329F040E060E080E00E948916409181
:1008D00062055091630560916405709165058FE034
:1008E00090E00E945D2E39C0882309F450C6909193
:1008F0001701809162059F3F59F4109217018F7E76
:100900008093620540E060E080E00E94891606C0A6
:100910009FEF90931701806180936205409162057B
:100920005091630560916405709165058FE090E0DA
:100930000E945D2E2CC60B30FDE51F0771F4882345
:1009400009F425C68091DD05837084608093DD0500
:10095000109208010E948D161AC6F6018281882322
:1009600019F1033E2CE51207C1F050F4013E8CE56D
:10097000180781F0023E9CE51907B1F481E010C030
:10098000043EECE51E0759F0053EFCE51F0761F447
:1009900084E006C010925E0505C082E001C083E0DD
:1009A00080935E050E946A1817FF71C0F60182816C
:1009B000882309F46CC080913C068093DC0310927C
:1009C0003C0680915E05813071F048F08230C1F0C4
:1009D0008430E1F486EE0E94422988E115C082EE5F
:1009E0000E94AD2C13C083E00E94232988E10E945D
:1009F000AD2C88E10E94462C83E00E94182906C095
:100A000082EE0E94AD2C87E50E9442298FE39CE98B
:100A10000197F1F700C000007801E894F7F85CE076
:100A2000A52EB12CC7010A2C02C0969587950A9471
:100A3000E2F7282F2F7041F0822F90E02A3010F437
:100A40004D9604C0069702C087E290E00E944229BA
:100A500094E0A91AB108ECEFAE16EFEFBE0611F75D
:100A600080915E05813039F040F0823031F0843081
:100A700051F488E206C08CE204C082EE0E94462C4B
:100A800002C00E9442298091DC0380933C06033F10
:100A9000FCE51F0729F180F4083D3CE51307C9F088
:100AA000093D8CE5180741F1073D9CE5190739F52B
:100AB00026E241EE61EE10C0053FECE51E07C1F0F5
:100AC00098F0063F2CE51207D1F427E245EE66EEDA
:100AD00003C027E245EE65EEC6010E94B31857C574
:100AE00026E241EE60EEF8CF27E245EE64EEF4CF69
:100AF00026E241EE62EEF0CF28E241E0ECCFF601D3
:100B00009281992309F439C11092DD030230FCE58A
:100B10001F0708F41CC106312CE5120738F09801B4
:100B20002A5F3C452730310508F011C10E9424247A
:100B300090937505809374050F303CE5130709F415
:100B4000CFC008F042C008309CE5190709F4A8C0DE
:100B5000F0F40430FCE51F0709F490C068F402309B
:100B60003CE5130709F486C003301C4509F0DFC0DB
:100B7000809174058260D9C006309CE5190709F49C
:100B800087C008F089C0809174058860CEC00B30A2
:100B9000FCE51F0709F495C068F409303CE513072C
:100BA00009F482C00A301C4509F0C1C08091740567
:100BB000886080C00D309CE5190709F486C008F0F4
:100BC00087C0809174058D7FB0C00A3FFCE51F0788
:100BD00009F457C050F502313CE5130709F488C009
:100BE00068F400319CE5190709F47EC001311C4509
:100BF00009F09DC0809174058F7B97C00431FCE59E
:100C00001F0709F487C008F479C005311C4509F0B5
:100C10008EC08091740582FB222720F991E09227F3
:100C200090FB82F990FB83F980C00D3F8CE518079B
:100C300009F452C058F40B3FECE51E0729F10C3FB4
:100C40001C4509F074C08091750560C00F3F2CE50C
:100C5000120709F458C080F101151D4509F067C05D
:100C600080917505982F909591708E7F892B90FBC0
:100C700081F94DC080917405816057C080917405E1
:100C800019C0809175051BC08091750582603FC0B9
:100C900080917405806149C080917405806245C06F
:100CA00080917405806441C00E940329809174057D
:100CB00080683BC0846039C0809175058260816026
:100CC00026C0809174058E7F30C08091740519C054
:100CD00080917405877F29C0809175058D7F17C02D
:100CE000809174058F7E21C0809174058F7D1DC019
:100CF0000E940329809174058F7717C08091740535
:100D0000877F8B7F12C0809175058D7F8E7F80934A
:100D100075050DC00E9403298091740587FB222769
:100D200020F991E0922790FB87F9809374056091F8
:100D300074051091750584E090E00E944B2E612FA0
:100D400081E290E00E944B2E0E94032920C48091F2
:100D50003C060631FCE51F0701F58A7A91E009F4AB
:100D600090E09093DE03911102C069E201C065E357
:100D700082EE95E00E94EC230DC006311C4509F07F
:100D8000C4C08091DE03811100C469E282EE95E067
:100D90000E94C1230E94FF24FAC38272F801E25C20
:100DA000FC45E431F10508F05BC0EA5AFF4F0C94B2
:100DB000972E9091DD0581E08927C8CD4FED56E152
:100DC00065EF76E12CC045EF56E16FED76E127C087
:100DD00041ED56E168ED76E122C048ED56E161ED66
:100DE00076E11DC04DEB56E167EC76E118C047ECAB
:100DF00056E16DEB76E113C049EA56E163EB76E12B
:100E00000EC043EB56E169EA76E109C045E956E1D7
:100E10006FE976E104C04FE956E165E976E10E94A9
:100E20008316B5C365E082E013C068E086E010C0B9
:100E30006EE089E00DC064E18FE00AC067E185E102
:100E400007C08091DD058370806680CD62E289E114
:100E50000E940B179CC38091DD0583708C6876CD52
:100E60000E3DECE51E0709F446C00830FDE51F07FE
:100E700009F444C001151C4509F047C00E9403292C
:100E80003FEF84E39CE0315080409040E1F700C0A8
:100E90000000F89481E08093E00080E28093D80025
:100EA0001092C900EFE1FEE43197F1F700C00000B5
:100EB0001DBA109268001CBC10BE1FBA10927A00B6
:100EC00010926E0010926F001092710010927200DA
:100ED0001092C9001092BC0014B817B81AB81DB807
:100EE00010BA1092BC0015B818B81BB81EB811BAC9
:100EF0000C94003F4CC30E94352449C39091A60531
:100F000081E089278093A60542C3F6010081118103
:100F1000992349F0C8010E944525F82E682FC80181
:100F20000E94BE2504C0C8010E949125F82EB80178
:100F30008F2D0E947D0B182F382FF60125812295C9
:100F40002F700281011110923B0680913906877043
:100F5000A9F0002399F080E2810F883078F082E0D8
:100F60002C873D879B870E941326809139068770C6
:100F7000EE24E3942C853D859B858111E12CA92EDF
:100F8000A2944FE0A422B12CFCE0AF16B10408F00B
:100F9000D9C2F501E659FF4F0C94972E892F807F17
:100FA0009F70F92E882319F0F29480EFF822002325
:100FB000B9F0FF2009F457C280E2810F883010F0A9
:100FC000311106C090913C06F92AF0923C0605C00A
:100FD00090913B06F92AF0923B060E94FF2443C2FF
:100FE000812F3D870E94462C3D85FF2009F4AAC22F
:100FF000105EF094183010F0311106C090913C064C
:10100000F922F0923C0605C090913B06F922F0923D
:101010003B060E94FF2496C2492F407F892F8F7084
:10102000403211F08295807F332319F03130E9F09E
:1010300025C0002381F030913D06222351F021305C
:1010400041F4982F932B391709F47CC290933D06F5
:1010500079C2832B17C0222319F0213009F472C200
:101060008B870E94F9248B851DC0002321F022303C
:1010700008F068C207C0211165C214C0002329F01E
:101080002111F1C10E9438295DC2222359F0193380
:1010900009F0FBC10FEF27EE33E001502040304054
:1010A000E1F7F1C10E942D294DC2292F26952695E1
:1010B000237030E02115310521F02130310559F040
:1010C00041C2002319F0812F937002C080E090E0AC
:1010D0000E94611640C2002319F0812F937002C054
:1010E00080E090E00E944B1636C20023F9F0153FD5
:1010F00051F0163F71F0143FA9F48091DF039091F5
:10110000E00381600BC08091DF039091E003826077
:1011100005C08091DF039091E00384609093E00329
:101120008093DF03812F0E9492221EC0153F51F051
:10113000163F71F0143FA9F48091DF039091E00312
:101140008E7F0BC08091DF039091E0038D7F05C0FF
:101150008091DF039091E0038B7F9093E003809375
:10116000DF03812F0E94C8210E948223F4C1892FAE
:10117000837009F070C00111ECC1812F82958695B2
:101180008770880F880F412F4F7050E060E070E04B
:101190004A015B01082E04C0880C991CAA1CBB1CC8
:1011A0000A94D2F714FF12C00FE010E020E030E004
:1011B00004C0000F111F221F331F8A95D2F7B901F7
:1011C000A801409550956095709503C040E050E0AF
:1011D000BA01969596959370892F90E0823091058B
:1011E00029F183309105C9F000913E0610913F0628
:1011F0002091400630914106019759F0482959291C
:101200006A297B29CB01BA016023712382239323AE
:101210000AC0802A912AA22AB32ACB01BA016829DE
:1012200079298A299B290E94CA2693C148295929CC
:101230006A297B2980913E0690913F06A091400645
:10124000B09141068A019B01082719272A273B27CD
:10125000C901B801E8CF002319F0892F817001C0BE
:101260008695882309F475C1812F829586958770AC
:10127000880F880F412F4F7050E060E070E04A0106
:101280005B01082E04C0880C991CAA1CBB1C0A9484
:10129000D2F714FF12C00FE010E020E030E004C0ED
:1012A000000F111F221F331F8A95D2F7B901A80121
:1012B000409550956095709503C040E050E0BA01AC
:1012C000969596959370892F90E082309105E9F07C
:1012D0008330910579F10091A0051091A10520912D
:1012E000A2053091A305019759F0482959296A2987
:1012F0007B29CB01BA01602371238223932320C071
:10130000802A912AA22AB32A15C0482959296A2974
:101310007B298091A0059091A105A091A205B09193
:10132000A3058A019B01082719272A273B27C90102
:10133000B80106C0CB01BA01682979298A299B29FD
:101340000E948F2606C19F70F92E002339F0892F45
:101350000E942C26812F0E943829FBC0812F0E94D9
:101360002D298F2D0E94EE25F4C0812F323FC9F127
:1013700028F4303F49F0313F79F170C0333FC1F17B
:10138000343F09F44DC06AC0002311F12111DAC0C5
:10139000292F2F7181E090E0A0E0B0E0AC01BD0109
:1013A00004C0440F551F661F771F2A95D2F78091FE
:1013B000A0059091A105A091A205B091A3058A0175
:1013C0009B01082719272A273B27C901B80125C0F7
:1013D000223008F0B7C0DCCF002329F0892F8F71AD
:1013E0002EC00023D9F3892F8F710E94EE25AAC049
:1013F000002381F0292F2F7181E090E0A0E0B0E080
:10140000BC01CD0104C0660F771F881F991F2A9564
:10141000D2F703C060E070E0CB010E948F2692C03B
:10142000002381F0192F1F71812F0E942C2628E0A4
:10143000129FC0011124836080933906812F0E947E
:101440002C2680C081E02C870E9413262C85223018
:1014500008F478C082E00E94132674C0002339F09B
:10146000222309F4BBCF812F0E94AD2C6BC0222315
:1014700009F4B9CF893349F43FEF87EE93E0315057
:1014800080409040E1F700C00000812F0E94462C70
:1014900059C0323FB1F028F4303F49F0313FF9F004
:1014A00028C0343FB9F058F0353F71F022C0002316
:1014B00009F451C09091480681E0892708C081E075
:1014C00008270093480647C0011145C081E080937A
:1014D000480641C001113FC0109248063CC000239D
:1014E00029F080914706882329F329C0222311F38C
:1014F00032C0809147062223C1F0882341F09091A9
:10150000480681E089278093480610924706812F7C
:10151000002319F00E94AD2C1EC00E94462C86E0CC
:10152000F60111928A95E9F716C08823A1F00111FE
:1015300012C09091480681E0892780934806109256
:10154000470609C0F8E0AF1AB10804E0A016B104DC
:1015500010F40E947716EE20D1F08091390680FDBC
:1015600016C0F60112828595859585950E942C26D8
:10157000C6010E94990380913906859585958595C8
:101580000E94EE2504C081E12FC965E3FFCB2D96B3
:101590000FB6F894DEBF0FBECDBFDF91CF911F9184
:1015A0000F91FF90EF90DF90CF90BF90AF909F9002
:1015B0008F900895CF93E82F873080F580910901AF
:1015C00090910A01892B09F047C0CE2F64E670E0A4
:1015D00080E40E94402D90930A0180930901892B99
:1015E000D1F464E670E082E10E94972D90930A01A5
:1015F00080930901892B79F481E090E001C0880F84
:10160000CA95EAF764E670E080950E94972D909362
:101610000A0180930901CF910C94132E90E0FC01F4
:101620003797E730F105C0F4EA58FF4F0C94972E36
:10163000209A289811C0219A29980EC0229A2A9897
:101640000BC0239A2B9808C0529A5A9805C0539AF7
:101650005B9802C03E9A4698CF910895CF93873009
:1016600008F03FC08091090190910A01892B09F08F
:1016700041C064E670E080E40E94402D90930A012E
:1016800080930901892B11F0C0E027C064E670E067
:1016900083E10E94972D90930A0180930901892B81
:1016A00099F764E670E081E40E94402D90930A016E
:1016B00080930901892B41F784E690E00E94C72DB1
:1016C00097FF05C090930A0180930901DDCFC82FD1
:1016D000C09510920A01109209010E94132E8C2FBE
:1016E0000AC09FB18FB1807F869586959370892BB4
:1016F000809501C080E0CF910895CF93DF9326E0DD
:10170000729FF001112444E5849FE00DF11D112426
:10171000E60FF11DEE0FFF1FEC59FE4FC591D4915E
:10172000CE01C238D10569F1B0F4C133D10509F455
:1017300075C048F4C932D10509F469C0CA32D1056F
:1017400009F473C085C0C533D10509F459C0C93344
:10175000D105B9F07DC0C33ED10571F138F4C03E6A
:10176000D105B1F0C23ED10511F172C0C63ED1051E
:10177000B9F1C73ED105C9F1C43ED10509F068C031
:1017800024C04091740540FD5DC041FD5BC060C058
:101790002091740520FD50C02091750520FF54C193
:1017A0008091740584FD4EC183EE90E04DC120917F
:1017B000740522FF49C1F4CF8091740582FD3FC0BA
:1017C0008091750580FD3EC0EBCF2091750521FF0E
:1017D0003BC18091740584FD35C187EE90E034C132
:1017E0002091740523FF30C1F4CF8091740583FDEF
:1017F0002CC08091750581FFECCF84EE90E024C170
:101800002091740525FF20C189E290E01DC120913F
:10181000740525FF19C185E390E016C12091740578
:1018200026FF12C18AE290E00FC12091740526FFC5
:101830000BC181E390E008C189E390E005C182EE2D
:1018400090E002C180EE90E0FFC086EE90E0FCC028
:10185000C11552E5D50708F074C0C11521E5D207BE
:1018600028F09C2F8827816F906AEEC0C83ED10572
:1018700070F5C03ED10508F0E7C0C83AD105B8F40C
:10188000C53AD10550F08C2F855AE82FF0E0E75E7D
:10189000FE4F808190E09064D7C0C130D10509F43B
:1018A000D3C008F4CFC0249708F4CCC0CDC0CF3B40
:1018B000D10508F0C7C08C2F885AE82FF0E0EE0F52
:1018C000FF1FE45EFE4F808191819464BDC0C1150D
:1018D00040E2D40760F4C11551E0D50708F0B4C068
:1018E000C03FD10508F4AEC0CE019065ADC0C115B2
:1018F00080E4D80708F4A6C0C11590E5D90720F404
:10190000CE019F70906AA0C04C2F437081E090E0A0
:1019100002C0880F991F4A95E2F79C68AE01F4E077
:1019200056954795FA95E1F74370942B2C2F2F701D
:101930002695269550E2259F90011124822B932B0A
:1019400083C0C11526E5D207E8F5C11545E5D407E2
:1019500048F08C2F0E9470188F7190E0982F882784
:10196000906272C0C11554E5D50728F09C2F8827D6
:10197000846F906A69C08C2F86958695AE014370FE
:101980005527C115D34578F490E2899F9001112421
:1019900081E090E002C0880F991F4A95E2F7822B00
:1019A000932B9C6851C090E2899F9001112481E0A3
:1019B00090E002C0880F991F4A95E2F7822B932B83
:1019C0009A6842C0C1152AE5D20780F5C11549E5DC
:1019D000D40718F18C2F8F700E9470189E0194E02C
:1019E000369527959A95E1F72F7030E0322F222710
:1019F0003069A901482B0FC0CE0190568115904245
:101A000008F58D2F8F710E9470189E013327306268
:101A10008F71A901582BCA0117C0C11558E5D50708
:101A200088F09C2F8827806F906A0EC0C1158BE5C7
:101A3000D80740F0C1159CE5D907F0F6CE019927EB
:101A4000906602C080E090E0DF91CF910895CF9240
:101A5000DF92EF92FF926B017C010E94A9245698BD
:101A60005E9825982D9826982E9827982F9890E084
:101A7000FC013197E730F105A8F4E358FF4F0C94CF
:101A8000972E259A2D9A0EC0259A2D9A269A2E9A2F
:101A900009C0259A2D9A04C0259A2D9A269A2E9A25
:101AA000279A2F9AC701B601FF90EF90DF90CF9051
:101AB000089580E290E090930A018093090180915B
:101AC000EB0381110EC00E943A2D81E08093EB035D
:101AD0002FEF83ED90E3215080409040E1F700C06C
:101AE000000064E670E080E40E94402D90930A01BB
:101AF00080930901892B09F04EC064E670E080E014
:101B00000E94972D90930A0180930901892B09F077
:101B100042C064E670E080E00E94972D90930A0135
:101B200080930901892BB9F564E670E08FE30E9488
:101B3000972D90930A0180930901892B61F50E94EA
:101B4000132E64E670E080E40E94402D90930A0119
:101B500080930901892BF9F464E670E08CE00E941F
:101B6000972D90930A0180930901892BA1F464E6D3
:101B700070E080E00E94972D90930A018093090104
:101B8000892B49F464E670E08FE30E94972D9093CF
:101B90000A01809309010E94132E80910901089582
:101BA000CF93DF9356985E9825982D9826982E9877
:101BB00027982F98C8E8D0E08FEF90E0998388832A
:101BC000AAE8B0E011969C938E93ECE8F0E0918344
:101BD0008083259A2D9A2FEF80E792E02150804054
:101BE0009040E1F700C00000269A2E9A2FEF80E780
:101BF00092E0215080409040E1F700C00000279A19
:101C00002F9A2FEF80E792E0215080409040E1F73B
:101C100000C0000025982D982FEF80E792E021501A
:101C200080409040E1F700C0000026982E982FEFEA
:101C300080E792E0215080409040E1F700C0000032
:101C400027982F988091620587702FEF829FC0019F
:101C500011249595879595958795992799838883DC
:101C600011969C938E939183808356985E982598C5
:101C70002D9826982E9827982F98DF91CF91089528
:101C800084B1807F84B985B1807F85B98AB1837F33
:101C90008AB98BB1837F8BB93E984698089580B3FB
:101CA0008C7080BB81B3836F81BB08954F925F922C
:101CB0006F927F928F929F92AF92BF92CF92DF925C
:101CC000EF92FF920F931F93CF93DF931F92CDB7A5
:101CD000DEB78091090190910A01892BA1F08091D2
:101CE000EA038F5F8093EA0381110DC00E94590DB2
:101CF00090E090930A0180930901892B21F40E94BE
:101D00002D170E94D00D46E6E42E45E0F42E5DE648
:101D1000C52E55E0D52E5701912C10E007E0090D96
:101D2000892D0E94DA0A802F0E94DA0A892D0E94EA
:101D30002E0BD5019C91981721F08C9388248394C5
:101D400001C0812C802F0E942E0BF60190819817E4
:101D500019F0808381E001C080E08829182B0E945F
:101D6000400E9394FFEFAF1ABF0A2FEFC21AD20AA8
:101D700037E09312D3CF0E9476236AEF70E00E947F
:101D80006F2EBC01482F8091E2038823D9F1109275
:101D9000E203E0915C05F0915D05DF011E9690E0A5
:101DA0008BEF3AEFA32EB12C20812B3F99F0C22E5E
:101DB000D12C421720F09B012C193D0905C095013B
:101DC0002C193D09260F371F2E31310514F0808361
:101DD00001C091E03196EA17FB0731F79093E203D7
:101DE000111102C0911110C01092E10360915C05C5
:101DF00070915D059091E203E9E7F5E080E03EE057
:101E00003E0F32C01111F0CF8091E1038111ECCF70
:101E10006091E3037091E4038091E5039091E60300
:101E20000E9420232FB7F894C0904206D09043061A
:101E3000E0904406F09045062FBFC092E303D09295
:101E4000E403E092E503F092E6034090D905509058
:101E5000DA056090DB057090DC05AFEF4A165A0694
:101E60006A067A06D1F43AC0D7012D917D015081DE
:101E7000521749F0DB015C915B3F21F44C932083C6
:101E800091E001C081E06F5F7F4F31963E13ECCF50
:101E90009093E2038093E103BBCFAB01BC016627C3
:101EA00077274A015B0180949094A094B0948414A5
:101EB0009504A604B70420F48FEF9FEFDC0106C061
:101EC000DB01CA01840D951DA61DB71D8093D905A0
:101ED0009093DA05A093DB05B093DC058091820630
:101EE000811109C09091DD05892F837021F0B92EF1
:101EF000B694B69401C0B12C809108018130A1F054
:101F000038F0823009F495C1833009F49FC1AFC124
:101F100010921601C092D505D092D605E092D70551
:101F2000F092D80581E08FC180910701B81210C0EE
:101F30008091DD05837090E02091060130E051E052
:101F400040E08217930709F450E0252F342F02C098
:101F500021E030E0822F8170809318018B2D90E07A
:101F60008631910508F053C1FC01EC57FF4F0C94EA
:101F7000972E90911601232B09F449C1F92EFF0CDD
:101F8000FF0CF90E05E00F0D013308F000E3F01629
:101F900008F0FEC020E040E060E08F2D90E00E945D
:101FA0008B16F394F4CF90911601D92EDD0CDD0C35
:101FB000D90E05E00D0D013308F000E36091DE0558
:101FC0007091DF058091E0050E94D617F62EE82E6D
:101FD000D01608F0DDC0ED2DF0E0DF01A658BC4FB3
:101FE0008C9190911701982341F02E2D4F2D672F42
:101FF000CF0179830E948B167981D394E9CF8091A8
:102000001601A82EAA0CAA0CA80E35E03A0D313301
:1020100008F030E3D090DF05C090E0052091E105A5
:1020200000E4029F012D1124A31628F5EA2CF12CBF
:10203000F701E658FC4F8081909117019823C9F071
:10204000F701EE0FFF1FE55EFC4F908192959F70A8
:102050006091DE05099F600D11247D2D8C2D398343
:102060000E94D617462F282F672FC7010E948B1674
:102070003981A394D9CF81E0303308F4C9C0C7C0F7
:1020800080911601A82EAA0CAA0CA80E05E00A0D34
:10209000013308F000E3D090DF05C090E005209107
:1020A000E10530E4329F312D1124A01608F070C0F4
:1020B000EA2CF12CF701E658FC4F90818091170132
:1020C0009823E9F0F701EE0FFF1FE65EFC4F6081F9
:1020D000369FB001112495E0759567959A95E1F7C3
:1020E0008091DE05680F7D2D8C2D39830E94D617D7
:1020F000462F282F672FC7010E948B163981A39482
:10210000D4CF80911601D82EDD0CDD0CD80E05E061
:102110000D0D013308F000E3F090DE057091DF054E
:10212000E090E0058091E105682F669566956695DB
:102130008091D5059091D60579830E94CB170E9496
:1021400049178058982F97FD9195990F292F3E2D6B
:10215000239F212D11246F2D7981822F0E94D61764
:10216000F62EE82ED016A0F4ED2DF0E0DF01A658F3
:10217000BC4F8C9190911701982341F02E2D4F2D3B
:10218000672FCF0179830E948B167981D394EACF90
:1021900081E00033E8F13BC080EF92E11AC084ECAB
:1021A00092E117C089EC93E11FC08AEA93E11CC059
:1021B0008FE893E11EC084E793E11BC082EC92E1BB
:1021C00008C089EB92E105C080EB92E102C085E98D
:1021D00092E10E944E1E1CC086E892E10AC08CE982
:1021E00097E102C083E693E10E94F21D11C08FE4E3
:1021F00093E10E94761D0CC088E592E105C086E25D
:1022000092E102C088EE91E10E94151D01C080E0BC
:10221000909116019F5F90931601811128C082E072
:102220008093080180911801811121C0BB2051F0D9
:102230001EC0B09207018091DD0583708093060176
:102240000E94191483E08093080111C06091D505A4
:102250007091D6058091D7059091D8050E942023D2
:102260006A3171058105910510F0109208012091E5
:10227000A6058091E8039091E903222309F43FC069
:10228000892B31F425982D9826982E9827982F98E9
:102290008091E8039091E9039170892B79F4809102
:1022A000E703882319F026982E9802C0269A2E9AC2
:1022B0009091E70381E089278093E7038091E80309
:1022C0009091E9038130984780F01092A6056091C3
:1022D000A0057091A1058091A2059091A3050E948F
:1022E000270D1092E9031092E8038091E803909182
:1022F000E90301969093E9038093E80310C0892BCA
:1023000071F01092E9031092E8036091A0057091BA
:10231000A1058091A2059091A3050E94270D812F10
:102320000F90DF91CF911F910F91FF90EF90DF9071
:10233000CF90BF90AF909F908F907F906F905F9065
:102340004F9008958033910540F5880F991F880FAD
:10235000991FFC01EE5AFE4F5281338180818370B8
:102360007181A82FB0E0E0E98E9FC00111248E5F3B
:102370009B4FFC01E70FF11DB4976083FC01E50F53
:10238000F11DB4974083830F911DFC01B497208306
:10239000FD01E050FC4F81E080830895FF920F9390
:1023A0001F93CF93DF93182F062FF42EC0E0D0E0B9
:1023B0002F2D402F612FCE010E94A2112196C033F4
:1023C000D105B1F7DF91CF911F910F91FF90089543
:1023D0000F931F9310E0F801EE0FFF1FE65EFC4F16
:1023E0009081905797FD9195000F111FF801E55EC0
:1023F000FC4FE081F0E0B097DF01AA0FBB1F8D0119
:102400000E0F1F1F2003D001219FB00D1124E8E300
:10241000F0E0E91BF10997FDF3959F01220F331FAF
:1024200089010E0F1F1F40039001419F300D1124A1
:102430002A0F3B1F37FF02C021583F4F220F232F87
:10244000221F330B620F1F910F9108950F931F935B
:10245000522F10E0F801EE0FFF1FE55EFC4FE08108
:10246000F0E0B097EE0FFF1F9F015203D001539F82
:10247000B00D1124000F111FF801E65EFC4F008122
:1024800010E000571109000F111F40039001419FF8
:10249000300D11242A0F3B1F37FF02C021583F4F38
:1024A000220F232F221F330B620F1F910F910895CC
:1024B0000F931F93522F10E0F801EE0FFF1FE55E00
:1024C000FC4FE081F0E0B0979F015203D001539F91
:1024D000B00D1124000F111FF801E65EFC4F0081C2
:1024E00010E00057110940039001419F300D112465
:1024F0002A0F3B1F37FF02C021583F4F220F232FC7
:10250000221F330B620F1F910F910895EF920F93CB
:102510001F9393E0099F80011124159507956E2D57
:10252000600F1F910F91EF90089550E0FA01EE0FA8
:10253000FF1FE55EFC4F9081905297FD9195440FEF
:10254000551FFA01E65EFC4F408150E0FA01E21BA4
:10255000F1099F01290F311D97FD3A95620F0895EA
:10256000E42FF0E0EE0FFF1FE55EFC4F6081621B81
:102570000895E42FF0E0EE0FFF1FE65EFC4F608150
:10258000621B0895622F0895E42FF0E0EE0FFF1F05
:10259000E65EFC4F408134EE439F412D1124E82F2D
:1025A000F0E050E0445E5F4FDA01A21BB1099D01EB
:1025B000B7FF03C031952195310993E0220F331FF6
:1025C0009A95E1F7AF01421B530B9A0157FF02C0E6
:1025D00020E030E0582F259F212D1124822F0895CF
:1025E000E42FF0E0EE0FFF1FE65EFC4F408134EE7B
:1025F000439F412D1124E72FF0E050E0445E5F4FF0
:10260000DA01A21BB1099D01B7FF03C031952195E5
:10261000310993E0220F331F9A95E1F7AF01421B76
:10262000530B9A0157FF02C020E030E0279F212D75
:102630001124722F0895FC01CB01309721F477FF0C
:102640002CC080E808959F01F7FF04C0222733279C
:102650002E1B3F0BBC01621B730B280F391F97FD0C
:102660000DC0CB0145E0880F991F4A95E1F7B901EC
:102670000E94832E80E2861B682F09C0C90125E0D5
:10268000880F991F2A95E1F70E94832E605A862FA2
:10269000F7FF02C081950895089580E00895EF92B4
:1026A0000F93CF93DF93D72FC82FC9010E19BA010B
:1026B0000E941B13602F681B7D2F8C2FDF91CF9101
:1026C0000F91EF9008950F93CF93DF93D72FC82FDB
:1026D000C901BA010E941B13682F600F7D2F8C2F38
:1026E000DF91CF910F910895EF920F931F93CF93A6
:1026F000DF93D62FC72F182FC9010E19010FBA016A
:102700000E941B13081B019F012D11246D2F7C2F8C
:10271000802FDF91CF911F910F91EF900895EF924D
:102720000F931F93CF93DF93D62F172FC82FC90175
:102730000E19070FBA010E941B13081B702F719FFF
:10274000712D11246D2F8C2FDF91CF911F910F913F
:10275000EF900895FF920F931F93CF93DF93F62E80
:10276000D72F182FC901C12FC01BBA010E941B13FC
:10277000982F880F980F2C2F291B219F212D112472
:102780006F2D7D2F822FDF91CF911F910F91FF90A1
:102790000895FF920F931F93CF93DF93F62E172F79
:1027A000D82FC901C72FC01BBA010E941B13982F35
:1027B000880F980FC91B7C2F719F712D11246F2DCD
:1027C0008D2FDF91CF911F910F91FF900895EF9280
:1027D000FF921F93CF93DF937B01182F110FC0E05F
:1027E000D0E08C2F8C5D8093EC0320E030E0F90189
:1027F000EC0FFD1FEE0DFF1D8081F901E451FC4F30
:1028000081832F5F3F4F2031310589F724E630E087
:1028100041E150E06CEE73E0812F0E94EC2D609658
:10282000C039D105F1F6DF91CF911F91FF90EF9064
:10283000089580910004882329F062E074E084E721
:102840000E94E7131092000480910104882329F06C
:1028500062E974E087E70E94E7131092010408958B
:10286000ECEEF3E06083418324E630E042E050E0A8
:10287000BF01880F0C94EC2DFF920F931F93CF9301
:10288000DF93E62FF0E0EA5BFA4F90819923B1F0F5
:10289000F82E82E1689FE001112400E010E0F801C9
:1028A000EC0FFD1FEE5DFA4F4081602F8F2D0E94CF
:1028B00030140F5F1F4F0231110589F7DF91CF915F
:1028C0001F910F91FF900895CF93DF93C82F4BE096
:1028D0006DEF0E94301440E06AE08C2F0E943014AB
:1028E0008FE39CE90197F1F700C0000040E060E051
:1028F0008C2F0E94301440E061E08C2F0E94301435
:1029000040E066E08C2F0E94301440E06DEF8C2F89
:102910000E943014D0E040E06D2F8C2F0E943014C4
:10292000DF5FD231C1F740E06D2F8C2F0E94301451
:10293000DF5FD432C1F740E06D2F8C2F0E9430143E
:10294000DF5FD43BC1F74BE06DEF8C2F0E9430145A
:1029500041E06AE08C2F0E94301440E06DEF8C2F34
:10296000DF91CF910C9430146F927F928F929F924F
:10297000AF92BF92CF92DF92EF92FF920F931F938D
:10298000CF93DF930E943A2D84E70E94641487E777
:102990000E946414E5E5EE2EE1E0FE2EC12CD12C60
:1029A000F2E17F2EA8E08A2E912CAA24A394B12CC8
:1029B00066246394F7013297608170E0CB018497BD
:1029C0003196C081D0E0A497D701EC91F0E0B497A4
:1029D000D601AA0FBB1FAA0FBB1FAE5ABE4F2C9128
:1029E000237030E0AC0197FF02C0495F5F4F63E0A6
:1029F000559547956A95E1F7729E8001739E100D7B
:102A00001124040F111D0E5D1A4FB4010E94832E74
:102A1000A50102C0440F551F8A95E2F7CA01D801EB
:102A20009C91892B8C93CE01D7FD079653E0959509
:102A300087955A95E1F7729E8001739E100D1124BF
:102A4000080F111D0E5D1A4FCE01B4010E94832E96
:102A5000A50102C0440F551F8A95E2F7CA01D801AB
:102A60009C91892B8C93CF01F7FD079643E09595B8
:102A700087954A95E1F7729EE001739ED00D11246F
:102A8000C80FD11DCE5DDA4FCF01B4010E94832E55
:102A9000A50102C0440F551F8A95E2F7CA0198812B
:102AA000892B8883F901EA5BFA4F60825FEFC51AD0
:102AB000D50A84E0E80EF11CA0E3CA16D10409F09F
:102AC00079CF60E084E70E943C1461E087E7DF9102
:102AD000CF911F910F91FF90EF90DF90CF90BF901B
:102AE000AF909F908F907F906F900C943C14EF92DA
:102AF000FF920F931F93CF93DF93CDB7DEB7679706
:102B00000FB6F894DEBF0FBECDBF4B8B5C8B6D8BC9
:102B10007E8B8F8B0E891F8901151105C1F15F3FD7
:102B200011F44F3FA1F1E42EF12CA1E0B0E0042E0E
:102B300001C0AA0F0A94EAF7852F90E0662319F0E6
:102B40002091480606C09C01225B3A4FF901208182
:102B50002A232223A9F046E0489F9001499F300D87
:102B60001124F701E20FF31FEE0FFF1FEE5EFD4F82
:102B700040815181FC01E25BFA4F9081A92B06C094
:102B8000FC01E25BFA4FA0958081A823A08386E038
:102B9000FE013D96DF01982F1D929A95E9F74D872A
:102BA0005E876F87198B088BDE01179601900D9257
:102BB0008A95E1F7CE0107960E943927811137C027
:102BC00086E0FE013796DE01119601900D928A95FE
:102BD000E1F7FF81E8856A857B856115710539F12B
:102BE000EF3F11F4FF3F19F120914F0630E0C9018A
:102BF0000196877099274091800650E084179507C9
:102C000079F1F983EA837D836C8396E0929FD0010A
:102C1000939FB00D1124A05BB94FFE013196019036
:102C20000D929A95E1F780934F060E94D42616E004
:102C30008091800690914F06891701F1189FC0017D
:102C40001124805B994F0E9439278823B9F0809125
:102C5000800690E001968770992780938006E8CFE0
:102C60000E94032910924F0610928006E9E4F6E0D4
:102C700086E0DF011D928A95E9F7D9CF67960FB6F6
:102C8000F894DEBF0FBECDBFDF91CF911F910F91A2
:102C9000FF90EF90089520914C0530914D058217DB
:102CA000930771F090934D0580934C05E091760564
:102CB000F0917705309721F00084F185E02D09949B
:102CC000089520914A0530914B058217930771F0C2
:102CD00090934B0580934A05E0917605F091770536
:102CE000309721F00680F781E02D09940895E09156
:102CF0007605F0917705309721F00190F081E02D75
:102D0000099480E00895882311F0FA0101C0FB01C5
:102D100009940C94CE110C94A21145E050E06CE1A2
:102D200070E08DED95E00C943B2EEDEDF5E0248107
:102D300030E1231B08F420E024830C948D16EDED84
:102D4000F5E0248130E1230F08F42FEF24830C9465
:102D50008D16EDEDF5E0238130E1231B08F420E032
:102D600023830C948D16EDEDF5E0238130E1230FE4
:102D700008F42FEF23830C948D16EDEDF5E02281FE
:102D800030E1231B08F420E022830C948D16EDED36
:102D9000F5E0228130E1230F08F42FEF22830C9419
:102DA0008D16EDEDF5E08181885081830C948D16B0
:102DB000EDEDF5E08181885F81830C948D16909113
:102DC000DD05892F86958695815C8F7393708823A6
:102DD00021F0880F880F892B02C0892F846580938A
:102DE000DD05109208010C948D169091DD05892F58
:102DF000869586958F5F8F739370863120F4880F48
:102E0000880F892B02C0892F84608093DD05109282
:102E100008010C948D169091DD059695969598175E
:102E200020F0961710F40C94F516880F880F9091E7
:102E3000DD059370892B8093DD05109208010C94B9
:102E40008D16EDEDF5E081E3808311828FEF8283B3
:102E500083838FE784830C948D160E94B41480E0E2
:102E600090E00E94352E8F3E9E4F21F00E94352427
:102E70000E94211745E050E06CE170E08DED95E097
:102E80000E94172E8091DD058C7F11F40C94211780
:102E90000895482F982F46FD9095E92FEF739F7066
:102EA00046FD9F5FE295EF70EE0FF0E0E65BFE4FB0
:102EB0002181299F802D212D112482958F702295AB
:102EC000207F822B3081982F930F892F47FD81958A
:102ED00080580895BC018230910508F40895613E40
:102EE0008EE1780748F49B0195E0369527959A95F1
:102EF000E1F748E0420F01C04FEF91E0242F30E0AE
:102F0000290F311D35952795229FF001239FF00D44
:102F1000F00D11246E177F0718F44FEF420F05C014
:102F20002F3F310539F091E0920F491738F78FEFB5
:102F3000890F08958FEF08950F931F93CF93DF9319
:102F40001F92CDB7DEB7182F47FD4195E8E3F0E0BB
:102F5000CF01841B910947FD9395889FF001899FBC
:102F6000F00DF00D1124229FC001239F900D900DB4
:102F700011248E0F9F1F79830E946A17982F880F44
:102F8000980F692F600F7981812F0F90DF91CF917A
:102F90001F910F91089520E030E0A901869F412DF7
:102FA000969F400D511D1124CA010895AF92BF9202
:102FB000CF92DF92FF920F931F93CF93DF93D62E82
:102FC000372FE82FF0E0711106C0E45AFC4F6491EE
:102FD000762F862F75C0C72FD0E0E45AFC4F24917E
:102FE000F22E022F10E046E0649FC0011124EFEFA3
:102FF000F0E0BF010E946F2EAB016BEA6403C001D9
:10300000659F900D11248D0D911D8D0D911D982F93
:10301000990F890FDF01AC1BBD0B0A9FB0010B9FFD
:10302000700D1A9F700D1124972F839FD0011124CA
:10303000AB2FBB276F01CA1ADB0A0C9DD0010D9D77
:10304000B00D1C9DB00D11245F01A81AB108AC9EF3
:103050006001AD9ED00CBC9ED00C1124CD2DDD277F
:10306000EC1BFD0B0E9FE0010F9FD00D1E9FD00D9E
:103070001124ED2F4230510591F04CF441155105CA
:10308000E1F041305105B9F4E22F2B2F16C0443046
:10309000510569F044F04630510579F00CC0E22F3B
:1030A000272F9D2F0AC0272F9F2DEB2F06C0E72F1C
:1030B000922F2D2F02C0E72F9B2F6E2F722F892F5B
:1030C000DF91CF911F910F91FF90DF90CF90BF9034
:1030D000AF90089560915E058CE090E00C944B2ECB
:1030E0009091740592FF0DC0282F2871283019F493
:1030F000877F846006C0282F2471243011F48B7FD1
:10310000886093FF0DC0282F2871283119F4877E1D
:10311000846106C0282F2471243111F48B7E8861CC
:103120002091750520FF0DC0382F3871383019F403
:10313000877F816006C0382F3171313011F48E7F66
:10314000886021FF0DC0282F2871283119F4877E4F
:10315000816106C0282F2171213111F48E7E886192
:1031600094FD877E08950F931F93CF93DF93C62F0F
:10317000D42F022FFC0182818823C9F06093DD03E4
:103180000E947623909349058093480580E28C0F36
:10319000883008F050C0C77081E001C0880FCA9520
:1031A000EAF7DF91CF911F910F910C94382910917C
:1031B000DD03161330C080914805909149050E94A7
:1031C0004C23883C910538F5C0E2CD0F1D17B9F0AE
:1031D00080E2810F883040F4177081E001C0880FD1
:1031E0001A95EAF70E942D29C83048F481E09D2FF6
:1031F000977001C0880F9A95EAF70E943829802FAE
:103200000E944229C830B8F4D77081E001C0880F0D
:10321000DA95EAF70AC080E28C0F883060F4C77054
:1032200081E001C0880FCA95EAF7DF91CF911F9125
:103230000F910C942D29DF91CF911F910F9108953B
:10324000CF93DF9300D01F92CDB7DEB79091CB051F
:10325000943019F589837B836A8382E08093E90047
:103260008FEF9091E800815095FD06C095ED9A95FD
:10327000F1F700008111F5CF8091E80085FF0DC0C6
:1032800040E050E063E070E0CE0101960E94981E9D
:103290008091E8008E778093E8000F900F900F9058
:1032A000DF91CF910895CF93DF93EC010E943E2CE4
:1032B000823011F0843031F4BE0184E0DF91CF918F
:1032C0000C942019DF91CF910895BC0160587109C9
:1032D00083E00C942019CF93DF93EC010E943E2CE5
:1032E000823011F08430F9F482E08093E9009FEF9E
:1032F0008091E800915085FD06C085ED8A95F1F733
:1033000000009111F5CF8091E80085FF0CC040E0EE
:1033100050E066E070E0CE010E94981E8091E800C7
:103320008E778093E800DF91CF910895CF93DF935C
:10333000EC010E943E2C823011F08430D9F580914E
:103340001501882339F08091740587FF03C060E27E
:1033500082E002C068E081E08093E9008FEF909105
:10336000E800815095FD06C095ED9A95F1F70000B3
:103370008111F5CF8091E80085FF1CC08091150177
:10338000811105C040E050E068E070E003C070E0EB
:1033900040E050E0CE010E94981E8091E8008E77B8
:1033A0008093E80080E2FE01A9EAB5E001900D9269
:1033B0008A95E1F7DF91CF910895CF93DF93CDB751
:1033C000DEB7CA55D1090FB6F894DEBF0FBECDBF28
:1033D00084B7877F84BF0FB6F894A895809160006A
:1033E000886180936000109260000FBE90E080E8DA
:1033F0000FB6F89480936100909361000FBE85B77B
:10340000806885BF85B7806885BF0E9499290E9422
:103410003E2A8091E20084608093E200789480915B
:10342000CB058823A1F01091E9001F709091EC006A
:10343000892F817090FD80E8182B1092E90080910F
:10344000E80083FD0E94CF1E1F701093E90082E008
:1034500084BD93E095BD9AEF97BD80936E000E9466
:10346000590D90E090930A01809309010E94400E4B
:103470000E944F0EA6E6B5E0E9E7F5E00EE00E0F7C
:1034800011921D920E13FCCF8EE090E00E949D2EB3
:1034900080935C0590935D05FC010E962BEF2193C4
:1034A000E817F907E1F780E090E00E94352E8F3EA3
:1034B0009E4F11F00E9435240E942D178CE090E061
:1034C0000E94272E90E0A0E0B0E080935E059093EC
:1034D0005F05A0936005B093610589EA8093800041
:1034E00089E08093810024982C983F988AB18F7C42
:1034F0008AB96E98479A8BB180638BB9769A8FE0C0
:1035000090E00E942F2E6093620570936305809374
:1035100064059093650567708FEF869FB001112455
:103520007595679575956795772770938900609372
:10353000880070938B0060938A0070938D00609375
:103540008C009091620594FF03C08093170102C024
:10355000109217010E94D00D80E090E00E94352E5D
:103560008F3E9E4F11F00E94352482E090E00E9431
:10357000272E809391050E942424909375058093B3
:10358000740583E090E00E94272E682F70E080E0B1
:1035900090E00E94CA268091DD05837011F410929C
:1035A00008018091DD058C7F81608093DD058BE0D3
:1035B00091E0909377058093760511E041E4C42E65
:1035C000D12CCC0EDD1E42E0C40ED11C58E1A52E3C
:1035D000B12C8091CB05853009F053C040E060E00C
:1035E00080E00E948916109382068091CB0584307A
:1035F00049F11092780580E40FB6F894A895A0924E
:1036000060000FBE8093600040E060E080E00E94B8
:1036100089161093820683B7817F846083BF83B746
:10362000816083BF7894889583B78E7F83BF0FB600
:10363000F894A89580916000886180936000109252
:1036400060000FBE8091CA05882309F4C2CF0E9492
:10365000590D90E090930A01809309010E94400E59
:103660000E944F0EE9E7F5E011920E13FDCF0E9484
:10367000560EE9E7F5E081918111B3C10E13FBCF3E
:10368000A8CF0E94560EE2E9F5E0A9E7B5E0E12CEB
:10369000F12C3E2D2D9191919227A1F180E099245A
:1036A0009394492D492351F161968FAF61976296AA
:1036B0003FAF6297292181E009F480E063968FAFE4
:1036C00063970E9476238160782F65969FAF8EAFB7
:1036D000659761964FAD619762965FAD629763960D
:1036E0006FAD639765968FAD65970E947715F7016B
:1036F000EE56FA4F8081982690822CC08F5F990CED
:10370000863079F68FEFE81AF80A9EE0E916F104A0
:1037100009F0BFCF8FEF66968FAF669767968FAF32
:10372000679768961FAE68970E9476238160782F0E
:103730006A969FAF8EAF6A9766964FAD669767960B
:103740005FAD679768966FAD68976A968FAD6A9719
:103750000E94771580918E0590918F050E944C23D1
:103760009C0190918D05992321F02431310508F4B5
:103770007CC080918905F0908A0581110BC0F11001
:1037800050C120918B0521114CC120918C05211134
:1037900048C16BC09F3F19F09F5F90938D0518162D
:1037A00024F40E946F22809389058091890587FF08
:1037B00005C00E946F228195809389051F1424F40F
:1037C0000E946F2280938A0580918A0587FF05C039
:1037D0000E946F22819580938A0530918905332359
:1037E00001F120918A052223E1F045EB3403C00169
:1037F0001124892F990F990B009719F0809389054F
:1038000002C01093890535EB2303C0011124892FD1
:10381000990F990B009719F080938A0502C01093B5
:103820008A0580918B05181624F40E944D228093FE
:103830008B0580918B0587FF05C00E944D228195E5
:1038400080938B0580918C05181624F40E944D22DC
:1038500080938C0580918C0587FF05C00E944D22C6
:10386000819580938C050E948223F09090050E94A0
:103870007716F81621F00E947716809390058091B4
:10388000CB05843009F0A5CE8093E9008091E80053
:1038900082FF9FCE8091E80085FF26C00E94B82954
:1038A000882311F091E021C080E4E82EF12CCE01B4
:1038B00001964C018091E80085FD0AC08091E800E6
:1038C0008B778093E8000E94B829882349F0EACFDB
:1038D0008091F100F40181934F01F1E0EF1AF108BA
:1038E000E114F10439F7DECF90E08091E8008B77A6
:1038F0008093E800992309F46CCE2981211114C02A
:103900008091A605882359F11092A6051093A5056C
:1039100022961FAE229723961FAE23978EEF2496F2
:103920008FAF249763E077C02130C9F422961FAE91
:10393000229723962FAF23978CE0EAEBF2E0D60193
:1039400001900D928A95E1F78EEF60968FAF6097A8
:103950006FE0CE018F5B9F4F0E94B0213ACE8091E5
:10396000A5058823C9F1223019F02330C1F04FC0DA
:103970006091A0057091A1058091A2059091A30589
:103980006B962FAF6B970E94A92422961FAE2297A9
:103990006B962FAD6B9723962FAF239714C08A8118
:1039A000813031F038F0823091F51093A40502C0D7
:1039B0001092A40522961FAE229783E023968FAF24
:1039C00023978091A40524968FAF24978EEF259698
:1039D0008FAF259764E01FC08FEF22968FAF22979D
:1039E00019C080E189BD82E189BD09B400FEFDCF27
:1039F0008091D8008F7D8093D8008091E000826014
:103A00008093E0008091E00081FDFCCFE2CD229622
:103A10001FAF229761E0CE018F5B9F4F0E94B021C4
:103A2000D8CD9F3F09F0B8CEC0CE9F92AF92BF9243
:103A3000CF92DF92EF92FF920F931F93CF93DF937A
:103A40006C0180911601C82FCC0FCC0FC80FD5E0A8
:103A5000DC0FD13308F0D0E36091E10566956695FF
:103A60008091D5059091D6050E94CB17182F80E440
:103A7000810F0E94491790E8F92EF80E812F0E94BD
:103A8000491720E8922E980ECD1700F5AC2EB12CD8
:103A9000F501E658FC4F8081909117019823A1F021
:103AA0006091DE057091DF058091E005E12E0C2F1D
:103AB000292D4F2DF60109950E94D617462F282F44
:103AC000672FC5010E948B16CF5FDECF81E0D03318
:103AD00008F080E0DF91CF911F910F91FF90EF9060
:103AE000DF90CF90BF90AF909F9008956F927F929C
:103AF0008F929F92AF92BF92CF92DF92EF920F93ED
:103B00001F93CF93DF934C0180911601C82FCC0FE8
:103B1000CC0FC80FD5E0DC0FD13308F0D0E36091B3
:103B2000E10566958091D5059091D6050E94CB1749
:103B3000182FCD1708F044C06C2E712CF301E658F5
:103B4000FC4F9081809117018923C1F1F301EE0FA1
:103B5000FF1FE65EFC4FC080D12C80E7C81AD10859
:103B6000F301EE0FFF1FE55EFC4FA080B12CE0E2F9
:103B7000AE1AB108CC9C9001CD9C300D300D1124B3
:103B8000AA9CC001AB9C900D900D1124820F931F35
:103B90000E946A17082F6091DE057091DF05809101
:103BA000E005E12E9501A601F40109950E94D617C2
:103BB000462F282F672FC3010E948B16CF5FB9CFE6
:103BC00081E0D03308F080E0DF91CF911F910F9119
:103BD000EF90DF90CF90BF90AF909F908F907F90AD
:103BE0006F900895CF92DF92EF92FF920F931F9301
:103BF000CF93DF937C0180911601C82FCC0FCC0F9F
:103C0000C80FD5E0DC0FD13308F0D0E36091E105B7
:103C100066958091D5059091D6050E94CB17182FF7
:103C2000CD1778F5CC2ED12CF601E658FC4F9081BB
:103C300080911701892319F1F601EE0FFF1FE55E50
:103C4000FC4F208130E020523109F601EE0FFF1FBA
:103C5000E65EFC4F408150E0405751096091DE051F
:103C60007091DF058091E005012FF70109950E9411
:103C7000D617462F282F672FC6010E948B16CF5FBD
:103C8000CFCF81E0D03308F080E0DF91CF911F915A
:103C90000F91FF90EF90DF90CF900895DF92EF9219
:103CA000FF920F931F93CF93DF937C0190911601A6
:103CB000C92FCC0FCC0FC90FD5E0DC0FD13308F0E2
:103CC000D0E36091E105669566958091D505909168
:103CD000D6050E94CB17D82ECD17F0F40C2F10E08C
:103CE000F801E658FC4F808190911701982391F0DC
:103CF0006091DE057091DF058091E0052D2D4C2F40
:103D0000F70109950E94D617462F282F672FC80163
:103D10000E948B16CF5FE0CF81E0D03308F080E0C7
:103D2000DF91CF911F910F91FF90EF90DF90089559
:103D3000CF92DF92FF920F931F93CF93DF931F9247
:103D4000CDB7DEB7F82E8B0199830E94B8299981EF
:103D500081111CC0CF2CD92E01151105B1F0809115
:103D6000E80085FD0AC08091E8008E778093E80026
:103D70000E94B829882381F309C0F60181916F015F
:103D80008093F10001501109E7CF80E00F90DF919F
:103D9000CF911F910F91FF90DF90CF9008951F93C7
:103DA000CF93DF93CDB7DEB7AA970FB6F894DEBFF7
:103DB0000FBECDBFEDECF5E088E08E0F9091F100E5
:103DC00091938E13FBCF8091CE058930B9F150F4D9
:103DD000823009F4A5C0833009F45FC0813009F056
:103DE000EEC00CC08B3009F470C008F488C0823477
:103DF00009F4AEC0853409F4C5C0E1C08091CD0599
:103E0000813A09F0DCC08091E800877F8093E80068
:103E10008091D1059091D205892B21F460E289EA45
:103E200095E003C060E080E090E070E00E94DB2B52
:103E30008091E8008B778093E800C1C08091CD0528
:103E4000813209F0BCC08091D1059091D2050297D2
:103E500008F0B5C08091E800877F8093E8008091EA
:103E6000E80082FD05C08091CB058111F8CFA7C085
:103E70002091F3008091F20090E0922B029729F4B8
:103E80008091F1008B7F813021F48091F10080934B
:103E9000A8058091E8008B7758C08091CD05813AC4
:103EA00009F08DC08091D1059091D205892B09F040
:103EB00086C08091E800877F8093E8008091E800C9
:103EC00080FFFCCF809115013BC08091CD058132F0
:103ED00009F075C08091D1059091D205892B09F028
:103EE0006EC08091E800877F8093E8000E94EA29F5
:103EF0008091CF05809315010E94032960C08091B5
:103F0000CD05813209F05BC08091E800877F809306
:103F1000E8000E94EA298091D0058093A7054FC050
:103F20008091CD05813A09F04AC08091E800877FF1
:103F30008093E8008091E80080FFFCCF8091A70586
:103F40008093F1008091E8008E778093E8002FC085
:103F50008091CD05803C99F58091D1059091D20555
:103F6000029741F58091CF059091D005892B11F5ED
:103F70008091E800877F8093E8006BE170E08EE03D
:103F800095E013C08091CD05803CC9F48091D105A6
:103F90009091D205079771F48091E800877F809314
:103FA000E80062EB70E08CE594E00E947A2B0E94BE
:103FB000EA2905C08091EB0080628093EB0080913C
:103FC000E80083FFA2C18091CD059091CE05492FD5
:103FD00050E04A30510508F098C1FA01E656FF4F0B
:103FE0000C94972E803821F0823809F08EC108C0D9
:103FF0008091C9059091CA05992389F082600FC00C
:104000008091D1058F70873008F07FC18093E900DF
:104010008091EB0085FB882780F91092E900909150
:10402000E800977F9093E8008093F1001092F100F0
:1040300036C1282F2D7F09F068C1882319F08230FE
:1040400061F063C18091CF05813009F05EC193308A
:1040500009F080E08093CA052EC08091CF058111C0
:104060002AC08091D1058F702FEF280F263008F0DD
:104070004CC18093E9002091EB0020FF1CC09330DD
:1040800021F48091EB00806214C09091EB0090616C
:104090009093EB0021E030E0A90102C0440F551FCE
:1040A0008A95E2F74093EA001092EA008091EB00D3
:1040B00088608093EB001092E9008091E800877F90
:1040C000F1C0811122C11091CF051F778091E300CB
:1040D0008078812B8093E3008091E800877F809334
:1040E000E8000E94EA298091E80080FFFCCF8091DF
:1040F000E30080688093E300111102C082E001C0F8
:1041000083E08093CB0501C18058823008F0FDC068
:104110008091CF059091D0058C3D53E0950779F5BE
:1041200083E08A838AE289834FB7F894DE0113968D
:1041300020E03EE051E2E32FF0E050935700E4919D
:1041400020FF03C0E295EF703F5FEF708E2F90E08D
:10415000EA3010F0C79601C0C0968D939D932F5FF3
:10416000243149F74FBF8091E800877F8093E800B2
:104170006AE270E0CE0101960E94DB2B7EC0409186
:10418000D1055091D205292F33272330310511F164
:104190006CF42130310509F4C7C02230310509F033
:1041A000B4C062E570E08AE296E060C02132310579
:1041B00009F43EC02232310509F447C02F303105E1
:1041C00009F0A3C0ECEBF6E0E4916E2F70E08AEB0F
:1041D00096E048C0992781309105D1F05CF4892B95
:1041E00009F093C0E6EBF6E0E4916E2F70E086EB09
:1041F00096E038C08230910599F0039709F085C0A8
:10420000EEE8F6E0E4916E2F70E08EE896E02AC0CA
:10421000ECEAF6E0E4916E2F70E08CEA96E022C0C2
:10422000E4E9F6E0E4916E2F70E084E996E01AC0CC
:104230004115510509F47DC04130510509F065C0B3
:1042400069E070E085E596E011C04115510509F47B
:1042500075C04130510509F058C060EC70E08AE249
:1042600095E004C06115710509F44FC02091E80084
:10427000277F2093E8000E947A2B8091E8008B77BB
:104280008093E80042C0803809F03FC08091E80088
:10429000877F8093E8008091CC058093F100809126
:1042A000E8008E778093E8000E94EA292EC08111F1
:1042B0002CC01091CF05123040F58091E800877F27
:1042C0008093E8001093CC050E94EA29111106C0E2
:1042D0008091E30087FD02C081E001C084E080930B
:1042E000CB0542E061EC81E00E94092A42E261ECE8
:1042F00082E00E94092A42E361EC83E00E94092ADD
:1043000042E360EC84E00E94092A8091E80083FF88
:104310001AC08091E800877F8093E8008091EB00CD
:1043200080628093EB000FC062E170E08CE796E062
:104330009DCF69E070E08CE396E098CF60E470E098
:104340008AEE95E093CFAA960FB6F894DEBF0FBE23
:10435000CDBFDF91CF911F9108958091A805089559
:104360002091CB05243099F423E02093E90070E0FC
:1043700040E050E00E94981E882321F01092A5058D
:104380001092A6058091E8008E778093E80008954A
:10439000803F39F480918A0587FF6CC010928A05AE
:1043A00069C0813F29F480918A051816BCF362C068
:1043B00090918905823F29F497FF5CC0109289058E
:1043C00059C0833F19F41916CCF354C0893F41F406
:1043D00080918B0518160CF04DC010928B054AC0C9
:1043E0008A3F29F480918B0587FF44C0F6CF8B3F2D
:1043F00039F480918C0587FF3DC010928C053AC03E
:104400008C3F29F480918C051816BCF333C0843F8F
:1044100021F4809188058E7F17C0853F21F480911B
:1044200088058D7F11C0863F21F4809188058B7FA0
:104430000BC0873F21F480918805877F05C0883FA6
:1044400031F4809188058F7E8093880513C08D3F5D
:1044500021F4809146068E7F0BC08E3F21F480911F
:1044600046068D7F05C08F3F29F4809146068B7FDD
:10447000809346068091890581110EC080918A053E
:1044800081110AC080918B05811106C080918C0535
:10449000811102C010928D0508958091460680FD1D
:1044A00016C081FD16C082FD18C080918D0588233D
:1044B00091F0883290F428E0829FC001112468E2D4
:1044C00070E00E94832E862F672B29F007C082E0C0
:1044D000089584E0089581E0089588E0089580912A
:1044E000460680FD17C081FD17C082FD19C080916E
:1044F0008D05882399F08C3398F423E2829FC001C4
:1045000011246CE370E00E94832E862F672B49F400
:1045100081E0089588E0089581E1089585E0089597
:1045200083E20895803F21F40E946F22819504C0A8
:10453000813F29F40E946F2280938A050895823F6B
:1045400021F40E946F22819504C0833F29F40E94C8
:104550006F22809389050895893F19F40E944D22A6
:1045600005C08A3F31F40E944D22819580938B05CE
:1045700008958B3F21F40E944D22819504C08C3F09
:1045800029F40E944D2280938C050895843F21F4E4
:1045900080918805816017C0853F21F4809188054E
:1045A000826011C0863F21F48091880584600BC031
:1045B000873F21F480918805886005C0883F31F4E9
:1045C0008091880580618093880508958D3F21F44E
:1045D0008091460681600BC08E3F21F48091460693
:1045E000826005C08F3F29F48091460684608093E5
:1045F0004606089578941F920F920FB60F921124D9
:104600008F939F93AF93BF938091420690914306FF
:10461000A0914406B09145060196A11DB11D80935D
:10462000420690934306A0934406B0934506BF917B
:10463000AF919F918F910F900FBE0F901F90189583
:10464000CF92DF92EF92FF920F931F932FB7F894C0
:10465000C0904206D0904306E0904406F090450694
:104660002FBF97018601061B170B280B390BC616A7
:10467000D706E806F90618F0C901B80106C0C90155
:10468000B80161507109810991091F910F91FF9043
:10469000EF90DF90CF900895CF92DF92EF92FF924C
:1046A0000F931F932FB7F894409142065091430601
:1046B00060914406709145062FBF6A017B01EE248C
:1046C000FF248C0120E030E0C016D106E206F3069C
:1046D00010F4415051099A01281B390BC9011F914F
:1046E0000F91FF90EF90DF90CF9008952FB7F8943F
:1046F0008091420690914306A0914406B0914506F0
:104700002FBF0895E0917605F0917705309749F035
:1047100082E0809387050480F581E02D87E895E0AD
:1047200009950E94762390938F0580938E050895B6
:104730001F920F920FB60F9211248F939F93AF93F6
:10474000BF9380917805811113C0809142069091AA
:104750004306A0914406B09145064196A11DB11DA6
:104760008093420690934306A0934406B093450677
:10477000BF91AF919F918F910F900FBE0F901F909F
:10478000189520911501222321F02091740527FD11
:1047900004C0FC013296089619C0262F269526954E
:1047A00026952E31C0F4FC01E20FF11D677081E007
:1047B00090E001C0880F6A95EAF78095928189237D
:1047C000828308953196E817F90729F0208126138E
:1047D000F9CF1082F7CF089520911501222321F0FF
:1047E0002091740527FD05C0FC0132962FEF30E0C3
:1047F00019C0262F2695269526952E3120F5FC01E9
:10480000E20FF11D677081E090E001C0880F6A95AA
:10481000EAF79281892B828308952F3F39F03F5F19
:10482000363041F041914613F8CF0DC04111F7CF1A
:10483000232FF5CF2F3F39F0FC01E20FF11D27FDAB
:10484000FA95628308950895CF9384E090E00E94E2
:10485000272EC82F81E290E00E94272E2C2F30E0D7
:10486000A901582BCA01CF9108956FEE7EEF80E029
:1048700090E00E94692E60E082E090E00E944B2E62
:1048800060E083E090E00E944B2E10923E06109272
:104890003F06109240061092410660E084E090E0EE
:1048A0000E944B2E60E081E290E00E944B2E60E07F
:1048B00085E090E00E944B2E60E086E090E00E9450
:1048C0004B2E6FEF87E090E00E944B2E40E050E0CF
:1048D000BA0188E090E00E945D2E60E08DE090E0FB
:1048E0000E944B2E40E050E0BA0188E190E00E9427
:1048F0005D2E60E087E190E00E944B2E40E050E0AA
:10490000BA018CE190E00E945D2E60E080E290E0D0
:104910000E944B2E1092620510926305109264055E
:104920001092650584E08061809362054091620584
:104930005091630560916405709165058FE090E08A
:104940000E945D2E40E050E0BA0183E190E00C94BB
:104950005D2ECF92DF92EF92FF926C01EE24FF2446
:10496000C114D104E104F10421F0C701B60120E132
:1049700001C020E0C72ED82EE92EFF24C114D10497
:10498000E104F10419F0285FC701B6016B017C0155
:1049900054E0F694E794D794C7945A95D1F7C1148C
:1049A000D104E104F10419F02C5FC701B6016B01D9
:1049B0007C0142E0F694E794D794C7944A95D1F7E6
:1049C000C114D104E104F10419F02E5FC701B6014E
:1049D000DC01CB01B695A79597958795892B8A2BF6
:1049E0008B2B09F02F5F822FFF90EF90DF90CF90FD
:1049F000089580913D06811110923D060895909191
:104A00003B0680913C06892B20913A06982F922BE9
:104A10009093E20580913D068823D9F0892B8093FD
:104A2000E20580911501882331F08091740587FF9C
:104A300002C08EE101C086E0E4EEF5E090E0815036
:104A400028F021912223D9F39F5FF9CF91110E9481
:104A5000F924E0917605F09177053097A9F08091DF
:104A60001501882359F08091740587FF07C0809154
:104A7000E2058093E30585E08093E2050280F381FF
:104A8000E02D82EE95E009940895BF92CF92DF92D7
:104A9000EF92FF920F931F93CF93DF938C01C090FF
:104AA0003E06D0903F06E0904006F090410680918F
:104AB000A0059091A105A091A205B091A305C82AD7
:104AC000D92AEA2AFB2ACFE1D0E0D701C6010C2E71
:104AD00004C0B695A795979587950A94D2F780FF5D
:104AE00007C0BC2EB8018C2F0E947D0B019719F4D2
:104AF000219758F7B12C8B2DDF91CF911F910F91FA
:104B0000FF90EF90DF90CF90BF900895CF93DF9309
:104B1000EC010E944525BE010E947D0BDF91CF91E3
:104B20000895292F220F920F990F890F682F6695EC
:104B300066956695982F977085E0689FB00111245F
:104B400040E050E080E0FA01E60FF71FEE5FF94F1A
:104B5000208130E0092E02C0369527950A94E2F7AD
:104B600021703327042E01C0220F0A94EAF7822B0A
:104B70004F5F5F4F4530510531F70895292F220FC0
:104B8000920F990F890FA82FA695A695A6958770C5
:104B900051E001C0550F8A95EAF785E0A89FD00142
:104BA000112420E030E070E0F901EA0FFB1FEE5F16
:104BB000F94F4081CB01022E02C0969587950A9449
:104BC000E2F7817099278195842785238427808344
:104BD0002F5F3F4F2530310539F708950F931F930D
:104BE00041E050E060E070E004C0440F551F661FD4
:104BF000771F8A95D2F74095509560957095809172
:104C0000A0059091A105A091A205B091A3058A01EC
:104C10009B01082319232A233B23C901B8011F91B3
:104C20000F910C948F2620913906809582238093D2
:104C30003906982F977079F430E0482F082E000C31
:104C4000550B2417350739F08595859585950E9474
:104C5000EE251092390608950F931F9341E050E01E
:104C600060E070E004C0440F551F661F771F8A95EF
:104C7000D2F78091A0059091A105A091A205B091D5
:104C8000A3058A019B01082B192B2A2B3B2BC90159
:104C9000B8011F910F910C948F260E948625292F11
:104CA0002F7092959F70E92FF0E03297EE30F1056A
:104CB000B8F4EC55FF4F0C94972E803F99F018F400
:104CC000883E70F40FC0843F59F40CC0883E50F009
:104CD000813F31F407C0822F869586958695089589
:104CE00080E0089581E0089510923B0610923A0604
:104CF0000E94FF24E7E8F5E086E0DF011D928A9537
:104D0000E9F710928D05109246060E94822380E0FA
:104D100090E00E94611680E090E00C944B16CF92D8
:104D2000DF92EF92FF92CF93DF9300D000D0CDB708
:104D3000DEB70E94270D6B017C018091A4058823BA
:104D400021F08091A505811115C0C092A005D092D7
:104D5000A105E092A205F092A3050E9474260F908F
:104D60000F900F900F90DF91CF91FF90EF90DF9019
:104D7000CF900895198282E08A83C701B6010E940C
:104D8000A9248B838EEF8C8364E0CE0101960E9470
:104D9000B021DBCF60933E0670933F0680934006C0
:104DA000909341060C9474268091800690914F0652
:104DB000891719F08F5F8770FBCF089580914E0699
:104DC00082958F7009F054C080914B06882309F4B6
:104DD0004FC080918006A0914F0660914906709166
:104DE0004A0640914C0650914D06B6E08A1709F4E8
:104DF0003FC090E041155105C1F17F3F11F46F3F75
:104E0000A1F1B89FF001B99FF00D1124E05BF94FBB
:104E1000218172132AC02081621327C022812111AF
:104E200024C0238134812417350710F4215031091F
:104E3000241B350B283C3105C0F420914E062F7001
:104E4000206120934E0626E0289FF001299FF00D57
:104E50001124EB5AF94F80818F708061808389E43F
:104E600096E00E9499030C94D42601968770BECFD9
:104E70000895BF92CF92DF92EF92FF920F931F930C
:104E8000CF93DF93CDB7DEB761970FB6F894DEBF4F
:104E90000FBECDBF8C0185E0F801DE011D960190AB
:104EA0000D928A95E1F7D8013C9111962C911197BA
:104EB0001296EC9012971396CD90DC901497509127
:104EC000490660914A0680914C0690914D060097E4
:104ED00009F44FC16F3F19F45F3F09F44AC1B09024
:104EE0004B06BB2009F4ECC040914E06C816D9060B
:104EF00028F0F601E81BF90BCF0104C080959095CE
:104F00008C0D9D1DFF24F394883C910548F0F12CF5
:104F1000407F09F09FC089E496E00E94990321C177
:104F2000842F807F09F044C0621312C0531310C055
:104F3000E1100EC04F70406140934E0689E496E048
:104F40000E94990380914E06D80115968C932EC02D
:104F5000CD2819F12F3F11F43F3FF9F0FE2CE1105D
:104F60001CC08091800640914F0656E0841709F4DA
:104F700058C090E0589FF001599FF00D1124E05B5C
:104F8000F94F6181261306C06081361303C0628128
:104F9000611103C001968770E9CFFE2CEE2009F461
:104FA00021C180914E06816080934E06F12C1AC17A
:104FB00062130AC0531308C0E11006C080914E0668
:104FC000D80115968C93B0C03D872E878D859E8520
:104FD0000E944D268823D1F1EE20C1F120914E068A
:104FE000822F82958F7090E0029774F0809149062D
:104FF00090914A0698878F831986DB86CA862C870C
:10500000CE0107960E94990386E0F801A9E4B6E074
:1050100001900D928A95E1F70E94DE26FF24F39419
:10502000E1C03D872E878D859E850E948625292F8C
:1050300022952F7030E0223031050CF0C7C09F70F0
:1050400009F0C1C0805E883008F4CCC0C8010E945D
:105050009903E4CF621314C0531312C0E11010C0BF
:1050600080914E06F8018583C8010E94990386E06D
:10507000E9E4F6E0DF011D928A95E9F7FB2CB2C066
:105080003D872E878D859E850E944D268823F1F2CF
:10509000EE20E1F220914E06822F82958F7090E0F3
:1050A00002970CF4B1CF8091490690914A069A83F9
:1050B00089831B82DD82CC822E83CE010196A2CF12
:1050C000C816D90638F0C81AD90AB8ECCB16D104DC
:1050D00050F007C0809590958C0D9D1D883C9105E2
:1050E00010F0F12C3EC0FE2CEE2009F4AFCF62137D
:1050F00027C0531325C020914E0620FD18C0822FD3
:1051000082958F70482F50E04115510581F0F801CC
:1051100025834F30510541F08F5F982F9295907FF6
:10512000822F8F70892B8583C8010E94990386E0A6
:10513000F801A9E4B6E001900D928A95E1F752C01A
:105140003D872E878D859E850E944D2681115CCFDF
:1051500080914E06816080934E06C8010E9499039B
:1051600041C0E9E4F6E086E0DF011D928A95E9F7A7
:1051700039C0EE2009F46ACF3D872E878D859E8544
:105180000E944D26F82E882309F460CF86E0F801AE
:10519000A9E4B6E001900D928A95E1F78091490665
:1051A00090914A060E94862592959F70963041F410
:1051B0008091480691E0892780934806909347069E
:1051C0000E94DE260FC081113DCF0CC02430310576
:1051D0000CF03CCF9F7009F435CFF8019581907F9A
:1051E00009F030CF8F2D61960FB6F894DEBF0FBE59
:1051F000CDBFDF91CF911F910F91FF90EF90DF9086
:10520000CF90BF90089510923C068091150188239D
:1052100031F08091740587FF02C08EE101C086E005
:10522000E4EEF5E0DF011D928A95E9F70C9474260F
:10523000882341F0809590913B06892380933B061B
:105240000C94FF240895882339F090913B06892B14
:1052500080933B060C94FF240895882341F08095A9
:1052600090913C06892380933C060C94FF2408957A
:10527000882339F090913C06892B80933C060C944E
:10528000FF240895CF93C82F0E94AD2CC93349F451
:105290002FEF87EE93E0215080409040E1F700C06F
:1052A00000008C2FCF910C94462C1F920F920FB6BA
:1052B0000F9211242F933F934F935F936F937F939C
:1052C0008F939F93AF93BF93CF93DF93EF93FF930E
:1052D000C091E900CF708091EC00D82FD17080FD93
:1052E000D0E81092E9008091F000877F8093F00071
:1052F00078940E94CF1E1092E9008091F00088609F
:105300008093F000CD2BCF70C093E900FF91EF9117
:10531000DF91CF91BF91AF919F918F917F916F91CD
:105320005F914F913F912F910F900FBE0F901F9063
:105330001895E8EDF0E080818E7F80831092E20086
:105340001092DA001092E100A0EEB0E08C91816042
:105350008C9380818F77808319BCA7EDB0E08C910E
:105360008E7F8C9380818F7E80831092810608953A
:105370002091E4003091E50095E64091EC00842F07
:10538000817040FF22C08091E80080FD1CC08091A8
:10539000CB05882391F0853091F08091EB0085FD5D
:1053A00010C04091E4005091E5004217530729F3E3
:1053B0009A01915011F784E0089582E0089583E006
:1053C000089581E0089580E008954091E80042FF4B
:1053D000DECF08958091CD0587FF11C08091E80050
:1053E00082FD05C08091CB058111F8CF11C080915D
:1053F000E8008B770BC08091CB05882349F0809122
:10540000E80080FFF8CF8091E8008E778093E80075
:105410000895982F973058F59093E900981739F030
:105420007091EC002091ED005091F00003C0242F0A
:10543000762F50E021FF19C03091EB003E7F309372
:10544000EB003091ED003D7F3093ED003091EB00AB
:1054500031603093EB007093EC002093ED0050939B
:10546000F0002091EE0027FF07C09F5FD3CF8F7021
:105470008093E90081E0089580E00895CF92DF9263
:10548000EF92FF920F931F93CF93DF93C8EDD0E07D
:1054900088818F7E8883E7EDF0E080818160808362
:1054A00084E082BF81E08093810688818E7F88833B
:1054B00002EE10E0F80110821092DA0081EEC82EA0
:1054C000D12CF601108288818F778883888180684B
:1054D000888388818F7D888319BC1092CB051092B8
:1054E000CC051092CA051092C90590EEE92EF12C58
:1054F000F70180818B7F808388818160888342E08F
:1055000060E080E00E94092AF60180818E7F80831E
:10551000F801808181608083808188608083F701C9
:1055200080818E7F8083888180618883DF91CF91A5
:105530001F910F91FF90EF90DF90CF9008951F92F1
:105540000F920FB60F9211242F933F934F935F93B7
:105550006F937F938F939F93AF93BF93EF93FF933B
:105560008091E10082FF09C08091E20082FF05C0C6
:105570008091E1008B7F8093E1008091DA0080FFD1
:105580002AC08091D80080FF26C08091DA008E7FEB
:105590008093DA008091D90080FF18C080E189BD36
:1055A00082E189BD09B400FEFDCF81E08093CB0587
:1055B0008091810681110FC00E9499290E943E2A84
:1055C0008091E20084608093E20005C019BC1092D3
:1055D000CB05109281068091E10080FF17C0809179
:1055E000E20080FF13C08091E2008E7F8093E20092
:1055F0008091E20080618093E2008091D800806217
:105600008093D80019BC85E08093CB058091E100A0
:1056100084FF34C08091E20084FF30C080E189BD06
:1056200082E189BD09B400FEFDCF8091D8008F7D55
:105630008093D8008091E1008F7E8093E10080917B
:10564000E2008F7E8093E2008091E200816080938F
:10565000E2008091CC05882311F084E007C080919E
:10566000E30087FD02C081E001C083E08093CB05A9
:105670000E9403290E947716109282068091E10011
:1056800083FF27C08091E20083FF23C08091E10067
:10569000877F8093E10082E08093CB051092CC0558
:1056A0008091E1008E7F8093E1008091E2008E7F07
:1056B0008093E2008091E20080618093E20042E00A
:1056C00060E080E00E94092A8091F0008860809369
:1056D000F000FF91EF91BF91AF919F918F917F91DA
:1056E0006F915F914F913F912F910F900FBE0F904F
:1056F0001F9018952091D3053091D40526173707B0
:1057000048F06115710539F42091E8002E77209357
:10571000E80001C0B901FC0120E06115710591F1BB
:105720008091CB05882309F440C0853009F43FC03F
:105730008091E80083FD3DC08091E80082FD2FC08C
:105740008091E80080FFE9CF2091F3008091F20082
:1057500090E0922B6115710559F08830910540F465
:1057600024912093F1003196615071090196F2CF96
:1057700021E0089709F020E08091E8008E7780937F
:10578000E800CBCF2111CCCF0AC08091CB05882374
:1057900061F0853061F08091E80083FD0AC080915E
:1057A000E80082FFF2CF80E0089582E0089583E070
:1057B000089581E008952091D3053091D4052617EE
:1057C000370748F06115710539F42091E8002E770C
:1057D0002093E80001C0B90140E061157105A9F10D
:1057E0002091CB05222309F443C0253009F442C09F
:1057F0002091E80023FD40C02091E80022FD32C046
:105800002091E80020FFE9CF4091F3002091F200C1
:1058100030E0342BFC01CF016115710559F02830BF
:10582000310540F481918093F100615071092F5F3F
:105830003F4FF1CF41E02830310509F040E02091A1
:10584000E8002E772093E800C8CF4111C9CF0AC0E5
:105850008091CB05882361F0853061F08091E8006C
:1058600083FD0AC08091E80082FFF2CF80E00895B6
:1058700082E0089583E0089581E008958091CB054A
:10588000843011F081E0089582E00895882309F4BE
:1058900063C0823869F40E94771681FF5DC069E3B6
:1058A00082EE95E00E94EC230E94FF2469E30EC083
:1058B000833891F40E94771680FF4EC063E582EE34
:1058C00095E00E94EC230E94FF2463E582EE95E0C0
:1058D0000E94C1230C94FF24843869F40E94771637
:1058E00082FF3AC067E482EE95E00E94EC230E94BA
:1058F000FF2467E4EBCF9CEF980F913A10F4682FE8
:10590000E5CF90E2980F983088F4877021E030E07E
:10591000A90102C0440F551F8A95E2F7CA0180957C
:1059200090913C06892380933C06D4CF9BE5980F49
:10593000933020F480E090E00C94611698E5980F85
:10594000973120F480E090E00C944B16803F20F0DB
:105950000E94C8210C9482230895882309F489C0E9
:105960008238B1F40E94771681FD83C069E382EE2C
:1059700095E00E94EC230E94FF242FEF41EE54E0BB
:10598000215040405040E1F700C0000069E317C0DB
:105990008338D9F40E94771680FD6BC063E582EEF0
:1059A00095E00E94EC230E94FF248FEF91EE24E00B
:1059B000815090402040E1F700C0000063E582EE96
:1059C00095E00E94C1230C94FF248438B1F40E9416
:1059D000771682FD4EC067E482EE95E00E94EC23CC
:1059E0000E94FF244FEF51EE84E041505040804030
:1059F000E1F700C0000067E4E2CF9CEF980F913A16
:105A000030F4682F82EE95E00E94EC23DCCF90E228
:105A1000980F983080F4877021E030E0A90102C02F
:105A2000440F551F8A95E2F7CA0190913C06892BD5
:105A300080933C06C8CFEBE5E80FE33038F4F0E0A4
:105A4000E655FC4F808190E00C946116E8E5E80F84
:105A5000E73148F4F0E0EE0FFF1FE355FC4F808183
:105A600091810C944B16803F20F00E9492220C945E
:105A7000822308951092B9008CE08093B8000895B5
:105A8000EF92FF920F931F93CF93DF93182FEB01A9
:105A90001092BC0084EA8093BC000E9476237C01B3
:105AA0009091BC0097FD0EC0CF3F8FEFD807C1F398
:105AB0000E9476238E199F098C179D0788F38EEF1D
:105AC0009FEF2EC09091B900987F983041F090914F
:105AD000B900987F903119F08FEF9FEF21C010939C
